:020000040800F2
:10000000B80600206D37000849020008773700085D
:100010004B0200084F0200085302000800000000D5
:10002000000000000000000000000000570200086F
:100030005902000800000000833700085B02000836
:100040008737000887370008873700088737000898
:100050008737000887370008A7020008E102000878
:100060001B030008550300087503000887370008C4
:100070008737000887370008873700088737000868
:100080008737000887370008873700088737000858
:10009000873700088737000887370008950300086E
:1000A0008737000887370008873700088737000838
:1000B0006D020008A3020008A502000887370008A7
:1000C0008737000887370008873700088737000818
:1000D00087370008E3030008E5030008E70300088A
:1000E00087370008873700088737000887370008F8
:1000F00087370008873700088737000887370008E8
:1001000087370008873700088F0200088737000804
:1001100087370008873700088737000887370008C7
:1001200087370008873700088737000887370008B7
:1001300087370008873700088737000887370008A7
:100140008737000887370008873700088737000897
:100150008737000887370008873700088737000887
:100160008737000887370008873700088737000877
:100170008737000887370008873700088737000867
:100180008737000887370008DFF80CD003F000FB42
:1001900000480047FD010008B806002010B54FF4E4
:1001A000407001F0ADFC00F08AFC01F0D7FB00F0DC
:1001B00043FD00F021FC00F06DF94FF4E13000F058
:1001C000F7FD1D4801F0E7FF01F0C0FF20B9002155
:1001D0001A4802F0EAFC10E001F0B8FF042804D14C
:1001E0000021164802F0E1FC07E001F0AFFF08280B
:1001F00003D10021114802F0D8FC10BDFFF7CEFF5B
:100200004FF47A7000F0DEFC00200D4981F82B00DD
:100210009FED0C0A084680ED060A9FED0A0A80ED64
:10022000050A9FED080A80ED080A0020487201E0E7
:1002300000F005F9FCE70000C000002000000140CC
:100240004C00002000000000704700BFFEE700BF28
:10025000FEE700BFFEE77047704710B564480068CE
:10026000401C6349086000F0B9FC10BD10B50121C5
:10027000880702F064FF012804D19FED5E0A5E4802
:1002800080ED000A0121880702F06AFF10BD10B559
:1002900001215A4802F053FF0121584802F060FF43
:1002A00010BD7047704710B5012001F00DFDB0B1D1
:1002B000012001F014FD524801F00BFE5149088065
:1002C0000846007800F0070008804F48407A20B1C7
:1002D00008460088C0F10700088000F085FF10BDC7
:1002E00010B5022001F0F0FCB0B1022001F0F7FCE3
:1002F000434801F0EEFD434908800846007800F0CD
:10030000070008804048407A20B108460088C0F1C4
:100310000700088000F068FF10BD10B5042001F050
:10032000D3FCB0B1042001F0DAFC354801F0D1FD76
:10033000344908800846007800F0070008803248F9
:10034000407A20B108460088C0F10700088000F01C
:100350004BFF10BD10B5082001F0B6FC48B10820D5
:1003600001F0BDFC9FED290A274880ED070A00F047
:10037000CBFE10BD10B5102001F0A6FC48B1102036
:1003800001F0ADFC9FED220A1F4880ED070A00F046
:10039000BBFE10BD10B5202001F096FC90B12020CE
:1003A00001F09DFC1848407A28B19FED120A1648CA
:1003B00080ED070A04E09FED170A134880ED070A55
:1003C00000F0A2FE402001F07FFC48B1402001F087
:1003D00086FC9FED110A0C4880ED070A00F094FEA0
:1003E00010BD7047704710B500F09FFD10BD0000B4
:1003F000200000200000000090000020000C0040C1
:1004000000000240880000204C000020000034431F
:100410000000B4420000B4430000874310B501F06F
:1004200027F910BD10B500F0DBFD022000F016F931
:1004300010BD10B5052000F0C5F810BD704710B50F
:1004400013480078012822D1FFF7E8FF1048B0F9DF
:100450000400022804DB00200D498880FFF7E2FF3A
:100460000B48B0F90600052804DB00200849C880C5
:10047000FFF7DFFF0648B0F908000A2804DB002078
:1004800003490881FFF7DAFF00200149087010BD19
:10049000800100209FEDB90AB94880ED010AB6EE4F
:1004A000000A80ED020A9FEDB70A80ED030A9FED76
:1004B000B60A80ED040A9FEDB40A80ED050AB3EE9A
:1004C0000E0AB24880ED010A704730B5B0EE403AEE
:1004D00031EE610A81ED000A91ED000ADFEDAC3AE0
:1004E000B4EEE30AF1EE10FA00D800E000BF90EDA0
:1004F000010AD1ED003A20EE230A81ED070AA54C4E
:1005000094F83A407CB10024A24D85F83A4091ED30
:10051000000AD1ED013A30EE630AD0ED033A20EE45
:10052000230A81ED060AD0ED023A91ED000AB1EE00
:10053000424AB4EEC40AF1EE10FA02D8B1EE420A11
:100540000BE091ED000AB4EEC20AF1EE10FA02DD02
:10055000B0EE420A01E091ED000A63EE803A91EDBF
:10056000080A03EE830A81ED080A91ED080AF1EE0C
:10057000623AB4EEE30AF1EE10FA02D8B1EE620A82
:100580000BE091ED080AB4EEE20AF1EE10FA02DD9A
:10059000B0EE620A01E091ED080A81ED080A91EDE2
:1005A000070AD1ED063A30EE230AD1ED083A30EED3
:1005B000230A81ED0B0A91ED000A81ED010A91ED0C
:1005C0000B0A30BD10B504467248007A68B19FED41
:1005D0006E0A714880ED000A9FED6B0A80ED080AF3
:1005E0009FED690A80ED0B0A37E06A4890ED010A39
:1005F000BDEEC00A694880ED020A8268D0ED010AAA
:10060000F8EEE00AF0EE601AD0ED000AF8EEE00A2B
:10061000B0EE601A00EE904AF8EE600A9FED602A94
:1006200060EE820AB0EE600A0123DFED572A9FEDEB
:10063000562A59495548DFED540AFFF746FF5648F8
:1006400090ED0B0ADFED570AB4EEE00AF1EE10FA76
:1006500003DB9FED540A80ED0B0A10BD10B5044674
:100660004C48007A68B19FED480A4F4880ED000A77
:100670009FED450A80ED080A9FED430A80ED0B0AC5
:1006800073E0444890ED0D0ABDEEC00A474880ED86
:10069000000A404890ED030ABDEEC00A434880EDD1
:1006A000010AD0ED010AF8EEE00AF0EE601AD0ED92
:1006B000000AF8EEE00AB0EE601A00EE904AF8EE9A
:1006C000600A9FED372A60EE820AB0EE600A0023CE
:1006D0001A46DFED372A9FED372A33492848DFEDE8
:1006E0002A0AFFF7F2FE2B4890ED0D0ADFED320AE1
:1006F00030EE600AB3EE041AC0EE010A9FED2F0A35
:1007000030EE800ABCEEC00A10EE100A2C490870C8
:1007100008460078322801DC32200870284800782A
:10072000B92802DBB920264908701F48D0ED0B0A12
:100730002348007800EE100AB8EE400A30EE800A36
:10074000BCEEC00A10EE100A1E4908800846008858
:10075000232801DC232008801A480088B0F5C87FD0
:1007600003DB4FF4C8701749088010BD014600290B
:1007700001DB88B27047484280B2FBE79A99193F83
:10078000F0000020CDCC4C3E00000000080100200D
:100790000000C8C24C00002050010020E0000020F2
:1007A0006F12833A0000614520010020D000002034
:1007B0000000C84300009643004003450000DC42AF
:1007C000000000208C0000200CB50020019000905B
:1007D0007648006840F480307449086000BF734870
:1007E000006800F4003000900198401C01900098CF
:1007F00018B90198B0F5A04FF1D16C48006800F429
:10080000003010B10120009001E00020009000981D
:10081000012846D165484030006840F08050634967
:10082000403108606248006840F440406049086018
:100830005E48083000685D49083108600846006875
:1008400040F4004008600846006840F4A05008608A
:100850005848091F0860081F006840F08070091F91
:10086000086000BF5148006800F000700028F9D00F
:1008700040F20570504908604C480830006820F08C
:1008800003004A49083108600846006840F0020049
:10089000086000BF45480830006800F00C000828D8
:1008A000F8D10CBD10B54548006840F470004349CC
:1008B00008603E48006840F001003C4908600020A4
:1008C0003A4908310860394800683D4908403749CD
:1008D00008603C48091D0860081F006820F480205B
:1008E000091F0860002031490C310860FFF76CFFD8
:1008F0004FF0006031498039086010BD70B50020AC
:100900000022022300240221284D08352D6805F01D
:100910000C0020B1042806D0082834D107E02A4D65
:100920002A4E356033E02A4D284E35602FE01F4DAA
:100930002D1D2D68C5F380541C4D2D1D2D6805F00F
:100940003F0154B1224DB5FBF1F5184E361D366806
:10095000C6F3881605FB06F209E01B4DB5FBF1F561
:10096000124E361D3668C6F3881605FB06F20F4D8B
:100970002D1D2D68C5F301456D1C6B00B2FBF3F511
:10098000124E356003E0104D104E356000BF00BFC1
:10099000064D08352D68C5F303150E4E705D0B4DE1
:1009A0002D68C540094E356070BD0000003802401A
:1009B0000070004008544007003C024088ED00E011
:1009C000FFFFF6FE103000240024F4000800002091
:1009D00000127A000C00002010B5002807DA0A0780
:1009E000140E8F4A00F00F031B1FD45403E00A07B4
:1009F000130E8C4A135410BD1FB50121084601F097
:100A0000E4FC4FF0804001F035FE1C208DF8000022
:100A100002208DF8010001208DF80300684601F0E6
:100A200074F84CF24F30029042F2CF00ADF804005F
:100A30000020ADF80C00ADF8060001A94FF0804091
:100A400001F0C5FE0121880702F076FB0122114664
:100A5000900702F05DFB0121880701F041FF0121B1
:100A6000082001F0B2FC704801F004FE32208DF83D
:100A7000000006208DF8010001208DF80300684673
:100A800001F043F86948029042F2CF00ADF804004B
:100A90000020ADF80C00ADF8060001A9624801F095
:100AA00096FE0121604802F047FB012211465E4894
:100AB00002F02EFB01215C4801F012FF1FBD2DE961
:100AC000FF41684601F067FB4FF47A710198B0FB73
:100AD000F1F4E4082546681EB0F1807F00D30FE0F2
:100AE000681E4FF0E02148610F214FF0FF30FFF703
:100AF00073FF00204FF0E02188610720086100BFEC
:100B00006FF0040001F04EF800BF45490C39096848
:100B1000C1F30220022200230146C1F1070CBCF1FF
:100B2000040F02D94FF0040C01E0C1F1070C674635
:100B300001F1040CBCF1070F02D24FF0000C01E0F0
:100B4000A1F1030C66464FF0010C0CFA07FCACF166
:100B5000010C0CEA020C0CFA06FC4FF0010808FA32
:100B600006F8A8F1010808EA03084CEA0805294636
:100B70004FF0FF30FFF730FFBDE8FF812C4A1168CE
:100B80004FF0E02252694FF0E0239B69D21A4FF4F4
:100B90007A735A434FF0E0235B69B2FBF3F201EB47
:100BA0004103C3EBC11302EBC300704730B50446E9
:100BB000FFF7E4FF054600BFFFF7E0FF401BA04240
:100BC000FAD330BD10B5044603E04FF47A70FFF756
:100BD000EDFF201EA4F10104F7D110BD1548408996
:100BE000401C1449488108468088401C00B2888017
:100BF0000846C088401C00B2C88008460089401CD6
:100C000000B2088108460078012804D108464078DF
:100C1000401C487002E0012006490870704700003F
:100C200018ED00E000E400E0000C00409F860100A9
:100C3000200000208001002000B58FB0012108466F
:100C400001F0D4FB0121152001F076FB564801F09C
:100C500011FD0CA801F0EFFD07A801F071FF4FF4A2
:100C6000A850059002208DF8180003208DF8190077
:100C700000208DF81A0002208DF81B0005A94B48B2
:100C800001F0BCF801220821484801F042F9012294
:100C90000A21464801F03DF901220C21434801F0A8
:100CA00038F940F65F100D900120ADF830000020BB
:100CB000ADF83800ADF832008DF83A000CA93A488A
:100CC00001F085FD6020ADF81C000020ADF81E008D
:100CD0000420ADF820000220ADF828000820ADF86F
:100CE0002A000020ADF82C00ADF82E00099007A9CD
:100CF0002D4801F001FE07A92B4801F036FE07A997
:100D0000294801F07FFE4FF40060ADF80400401068
:100D1000ADF806000020ADF80800ADF80A00ADF807
:100D20000C004FF40050ADF80E004000ADF810007C
:100D300001A91D4802F0ACF908211B4801F069FF28
:100D40000821194801F06EFF0821174801F077FFCC
:100D50000121154802F0B5F90121134801F0A2FD67
:100D60000121114801F0BCFD002211460E4802F09D
:100D700025F8002211460C4802F02FF80022042129
:100D8000094802F01BF800220421074802F025F868
:100D900000220821044802F011F80022082102482C
:100DA00002F01BF80FB000BD00000140001002402F
:100DB00010B588B004460121880401F006FB01212A
:100DC000082001F0B9FA27208DF80C0001208DF8D9
:100DD0000D008DF80F0003A800F097FE07220821F0
:100DE000B64801F096F807220921B44801F091F8BD
:100DF0004FF44070019002208DF808008DF8090032
:100E000000208DF80A0001208DF80B0001A9AB48E5
:100E100000F0F4FF04940020ADF81400ADF81600C3
:100E2000ADF81800ADF81C000C20ADF81A0004A9AC
:100E3000A34802F0D8FA012240F22551A04802F05E
:100E400010FC01219E4802F056FB08B010BD10B501
:100E500004469C4800789C4908709A4804709B4856
:100E6000007878B908460078862807D19548007838
:100E7000052803D101209549087055E000209349C9
:100E8000087051E0924801780078401C904A107038
:100E900090484454104600780D2840DB8E48007876
:100EA0008B308D4908708B48007B097888422ED1A1
:100EB00000218A4801F0D4FC012089490870854846
:100EC0000078884981F8300082484178854880F868
:100ED000311080488178834880F832107D48C1788D
:100EE000804880F833107B4800797E4981F83400CF
:100EF000784841797B4880F835107648817979487F
:100F000080F836107348C179764880F83710002091
:100F10006F490870704908706C49087004E06E48A9
:100F2000007820446C49087010BD10B564480088F2
:100F300000F0080018B16248001D0088C4B240F2F9
:100F400025515F4802F0C8FB58B140F225515C487A
:100F500002F0FDFB5A48001D0088C4B22046FFF78E
:100F600076FF40F22771564802F0B6FBC0B15E48EA
:100F700001780078401C5C4A10705C48405C504925
:100F8000091D08801046007859490978884207D120
:100F90004B480C30008820F0800049490C31088013
:100FA00010BD70B505460E4600240AE0295D504884
:100FB00002780078401C4E4B18704C488154601CDD
:100FC000C4B2B442F2DB3E480C30008800F080002E
:100FD00028B9012240F22771394802F042FB70BD66
:100FE00010B50020434908709FED430A434880ED47
:100FF000000A00784249887040484078C8703F48ED
:10100000807808713D48C0784871364890ED030AF1
:101010003A4880ED000A0078887138484078C871F5
:101020003648807808723548C07848722D4890ED6F
:101030000D0A324880ED000A007888722F48407807
:10104000C8722E48807808732C48C07848730020F6
:101050002C4908800DE02A482A490988405C254926
:10106000097808442349087026480088401C25490F
:101070000880244800880E28EDDB1E4800782049AF
:10108000887300201F49088012E01D481D4A1288FD
:10109000815C0B4802F05AFA00BF4021084802F078
:1010A00005FB0128F9D117480088401C1549088024
:1010B000144800880F28E8DB10BD0000000C024037
:1010C000004800404B0000204A000020490000205A
:1010D000260000208C01002024000020000C00408D
:1010E000250000204C00002027000020B401002033
:1010F0002800002048000020000000002C000020F4
:10110000340000204600002010B5FE4800F0E1FE4B
:10111000FD4908800846008880100880084600784D
:1011200000F00E000880F94800F0D3FEF84908806E
:1011300008460088801108800846007800F0010009
:101140000880F148008809880844F2490880002096
:10115000F14908879FEDF10A084680ED080A90F8EA
:101160002A00B0B34FF0804001F07EFB00EE100A81
:10117000B8EE400AEA4880ED000A90ED000AB5EEAC
:10118000C00AF1EE10FA1DD090ED000ADFEDE50A7D
:1011900080EE801AE04880ED031A90ED030ADFED3F
:1011A000E20A20EE200AE148D0ED000A9FEDE01AA5
:1011B00001EE200AD84880ED030A90ED030ADB48CF
:1011C00080ED000A0120D44981F82B0081F83A0013
:1011D00004E0FFE70120D04981F82A0000214FF008
:1011E000804001F03DFB10BD10B5CB48007A0028CF
:1011F0007ED1D0480088002866DDCE4800880728C8
:1012000062DAC548407A30B1C348008F401C00B252
:10121000C149088705E0C048008F401E00B2BE49A2
:101220000887BD48B0F9380000EE100AB8EEC00AD1
:10123000DFEDC10A20EE200AB74880ED080A90EDE4
:10124000080ADFEDBE0AB4EEE00AF1EE10FA03DBA5
:101250009FEDBA0A80ED080AAF4890ED080ADFED6D
:10126000B80AB4EEE00AF1EE10FA03D89FEDB40A22
:1012700080ED080AA84890ED070AD0ED080A30EE84
:10128000200A80ED060A90ED060AB5EEC00AF1EEDE
:1012900010FA07D290ED060ADFEDAA0A30EE200A16
:1012A00080ED060A9C4890ED060ADFEDA60AB4EE32
:1012B000E00AF1EE10FA07DD90ED060ADFEDA10A73
:1012C00030EE600A80ED060A9A48008807287DD231
:1012D000DFE800F07C45C586FD04FC0000208E4957
:1012E00081F82C004FF40051864800F005FE00E024
:1012F0009EE10021944801F05CFC01220821924803
:1013000001F05CFD042208218F4801F066FD4FF4D6
:1013100000717C4800F0F0FD8C4801888A4801F09B
:1013200044FC01220021884801F048FD04220021EC
:10133000854801F052FD4FF40061724800F0DAFD7B
:101340000021814801F033FC012204217E4801F094
:1013500035FD042211467C4801F03FFD67E1002085
:101360006D4981F82C004FF40061664800F0C4FD1F
:101370000021754801F01BFC01220421724801F094
:101380001DFD04221146704801F027FD4FF4007145
:101390005C4800F0B1FD6D4801886B4801F005FC28
:1013A00001220021684801F009FD0422002166485D
:1013B00001F013FD4FF40051524800F09BFD002155
:1013C000614801F0F6FB0122082100E02EE15E48B1
:1013D00001F0F4FC042208215B4801F0FEFC26E148
:1013E00000204D4981F82C004FF40071454800F071
:1013F00083FD0021544801F0D8FB0122002152480E
:1014000001F0DCFC042200214F4801F0E6FC4FF41F
:1014100000613C4800F070FD4C4801884A4801F0EA
:10142000C6FB01220421484801F0C8FC04221146F1
:10143000454801F0D2FC4FF40051324800F05AFD0B
:101440000021414801F0B5FB012208213E4801F08E
:10145000B5FC042208213C4801F0BFFCE7E0002075
:101460002D4981F82C004FF40051264800F044FD2E
:101470000021354801F09DFB01220821324801F08E
:101480009DFC04220821304801F0A7FC4FF40071B4
:101490001C4800F02FFD00212B4801F086FB0122A3
:1014A0000021294801F08AFC04220021264801F08D
:1014B00094FC4FF40061134800F01EFD234801889E
:1014C000214801F074FB0122042101E009E06EE0F3
:1014D0001D4801F073FC042211461B4801F07DFCFD
:1014E000A5E000200C4981F82C004FF4006105486C
:1014F00000F002FD0021144801F059FB01220421F3
:10150000114825E000100240A4000020000C024019
:10151000A60000208A0000204C00002000000000EF
:101520009000002000BA5B496666663FAC00002070
:10153000CDCCCC3D88000020C3F588400000B242ED
:101540000000B2C20000B443000001408C00002043
:1015500001F034FC04221146F44801F03EFC4FF443
:101560000071F34800F0C6FC0021F04801F01DFBBB
:1015700001220021ED4801F021FC04220021EB486A
:1015800001F02BFC4FF40051E94800F0B5FCE948AC
:101590000188E64801F00DFB01220821E34801F033
:1015A0000DFC04220821E14801F017FC3FE0002077
:1015B000E14981F82C004FF40071DD4800F09CFCFB
:1015C0000021DA4801F0F1FA01220021D74801F0A8
:1015D000F5FB04220021D54801F0FFFB4FF4006128
:1015E000D34800F087FC0021D04801F0E0FA012246
:1015F0000421CE4801F0E2FB04221146CB4801F061
:10160000ECFB4FF40051CA4800F076FCC948018851
:10161000C64801F0CEFA01220821C44801F0CEFBF1
:1016200004220821C14801F0D8FB00E000BF00BF40
:1016300010BD10B5C048007AC8B10020BE4908727C
:101640006420BC490880BD4800F043FCBC490880C8
:101650000846007800F007000880B748407A20B1BB
:1016600008460088C0F107000880FFF7BDFD10BDE7
:1016700010B5B44801F0F8F800EE100AB8EE400AD0
:10168000B14880ED000AAC4890ED060AD0ED0C0A96
:1016900030EE200A80ED050A90ED050A5FED570A4D
:1016A000B4EEE00AF1EE10FA07DD90ED050A5FED09
:1016B0005B0A30EE600A80ED050A9F4890ED0D0A46
:1016C000DFEDA20AB4EEE00AF1EE10FA61DB90ED74
:1016D000000AD0ED050AB4EEE00AF1EE10FA2BDBB9
:1016E00090ED000AD0ED050A30EE600A80ED010AA7
:1016F00090ED010ADFED960AB4EEE00AF1EE10FA81
:101700000FDB90ED050A5FED710A30EE200AD0ED97
:10171000000A30EE600A80ED010A00208649487216
:101720008BE0002084494872084690ED010AB1EE32
:10173000400A80ED010A80E07F4890ED050AD0ED77
:10174000000A30EE600A80ED010A90ED010ADFED3B
:10175000800AB4EEE00AF1EE10FA16DB90ED050A0D
:101760005FED880A30EEC00AD0ED000A30EE200AA4
:1017700080ED010A002070494872084690ED010A88
:10178000B1EE400A80ED010A57E000206A49487234
:1017900053E0694890ED000AD0ED050AB4EEE00A86
:1017A000F1EE10FA24DB90ED000AD0ED050A30EEE0
:1017B000600A80ED010A90ED010ADFED650AB4EEE2
:1017C000E00AF1EE10FA0FDB90ED050A5FEDA30AD7
:1017D00030EE200AD0ED000A30EE600A80ED010AFA
:1017E00000205549487228E001205349487224E0FE
:1017F000514890ED050AD0ED000A30EE600A80ED08
:10180000010A90ED010ADFED520AB4EEE00AF1EEB2
:1018100010FA0FDB90ED050A5FEDB60A30EEC00A54
:10182000D0ED000A30EE200A80ED010A0120424985
:10183000487202E00020404948723F4890ED0D0A8E
:10184000F7EE000AB4EEE00AF1EE10FA01DDFFF760
:10185000F0FE10BD3848007A90B11FEDD00A36482E
:1018600080ED030A0020344981F82B001FEDD50AD2
:10187000384880ED000A1FEDD70A084680ED090AB6
:10188000704710B52C4890F82C0001280CD100208E
:1018900028490880254948638863C8634FF4A851E4
:1018A000234800F029FB1AE02348007A012816D1CA
:1018B0001E48406B20B11F4800881C4948630EE059
:1018C0001A48806B20B11B4800881849886306E0DD
:1018D0001648C06B18B1174800881449C86310BD7A
:1018E00010B51548007A90B10020134908724FF4E2
:1018F000967010490880114800F0EBFA10490880F2
:101900000846007800F007000880FFF76DFC0CE047
:1019100011480088072808D101200749087264206F
:1019200004490880FFF7ADFF10BDF1E7000001405A
:10193000001002408C0000204C00002000000240FB
:1019400088000020000C0040A80000200000344463
:1019500000003443900000208A00002000B585B0CC
:1019600001211F2000F0E8FC0121880300F03EFD6A
:101970000720039000208DF8100002208DF8110040
:1019800001208DF8130003A95A4800F037FA00210E
:10199000084600F036FE0121002000F032FE022150
:1019A000002000F02EFE06208DF8080000208DF8A3
:1019B000090001208DF80B0002A800F0A6F807200E
:1019C0008DF8080000208DF8090001208DF80B002B
:1019D00002A800F09AF808208DF8080000208DF881
:1019E000090001208DF80B0002A800F08EF80720F6
:1019F000009000208DF8040010208DF805000120D3
:101A00008DF80600684600F0F9F84FF4285003906E
:101A100001208DF8100003208DF8110000208DF8B2
:101A2000120001208DF8130003A9334800F0E6F9F5
:101A30004FF42851304800F05FFA3820039000201E
:101A40008DF8100002208DF811008DF8130003A905
:101A5000294800F0D3F94020039000208DF81000B1
:101A600002208DF811008DF8130003A9234800F01F
:101A7000C5F90321042000F0C4FD0421084600F04C
:101A8000C0FD0521042000F0BCFD0621032000F06C
:101A9000B8FD09208DF8080001208DF809008DF8A7
:101AA0000B0002A800F031F80A208DF80800012090
:101AB0008DF809008DF80B0002A800F026F8172019
:101AC0008DF8080001208DF809008DF80B0002A8A0
:101AD00000F01BF87820009000208DF804000C2006
:101AE0008DF8050001208DF80600684600F086F8A4
:101AF00005B000BD0000024000100240000C024092
:101B000032490143324A1160704770B50021002309
:101B10000F22C4781CB32E4C246804F4E064C4F58E
:101B2000E064C4F30721C1F10404E3B20A4144783C
:101B30009C40E1B28478144021430C07210E254CCF
:101B400005786155047804F01F050124AC40057840
:101B50006D11AD0005F1E025C5F8004109E00478FC
:101B600004F01F050124AC401B4D0678761145F8A2
:101B7000264070BD194A0A400243154B1B1F1A60CC
:101B8000704739B1124A121D12680243104B1B1DD7
:101B90001A6006E00E4A121D126882430C4B1B1D90
:101BA0001A607047042808D14FF0E021096941F01C
:101BB00004014FF0E022116107E04FF0E0210969D4
:101BC00021F004014FF0E022116170470000FA0596
:101BD0000CED00E000E400E080E100E080FFFF1F8A
:101BE000002041490860091D0860091D0860091DA1
:101BF00008603E483C4914310860704700213A496A
:101C00008279002A3AD00A46126803689A430B4642
:101C10001A600A1D126803689A430B1D1A60027944
:101C200011440A6803681A430A602F4A083212688E
:101C300003689A432C4B08331A601A1D1268036814
:101C40009A43294B0C331A604279102A0ED11A1F7D
:101C5000126803681A43244B08331A601A1D12686D
:101C600003681A43204B0C331A600DE01E49427979
:101C700011440A6803681A430A6005E002791144B6
:101C80000A6803689A430A60704700210160017185
:101C90000C2141710021817170471349103109688D
:101CA0000143114A103211607047014600200E4A6C
:101CB000143212680A400AB1012000E00020704787
:101CC000094914310860704701460020064A143261
:101CD00012680A400AB1012000E000207047024962
:101CE0001431086070470000003C0140FFFF7F0096
:101CF00010B504469848844208D10121084600F0F6
:101D000086FB0021012000F082FB76E093488442AC
:101D100008D10121022000F07AFB0021022000F00E
:101D200076FB6AE08E48844208D10121042000F04D
:101D30006EFB0021042000F06AFB5EE089488442CB
:101D400008D10121082000F062FB0021082000F0EA
:101D50005EFB52E08448844208D10121102000F04B
:101D600056FB0021102000F052FB46E07F488442E1
:101D700008D10121202000F04AFB0021202000F0A2
:101D800046FB3AE07A48844208D10121402000F025
:101D90003EFB0021402000F03AFB2EE075488442D3
:101DA00008D10121802000F032FB0021802000F0CA
:101DB0002EFB22E07048844208D10121801500F0FA
:101DC00026FB0021A01500F022FB16E06B488442A0
:101DD00008D10121401500F01AFB0021601500F028
:101DE00016FB0AE06648844207D10121001500F085
:101DF0000EFB0021201500F00AFB10BDF0B50A46CD
:101E000000210023002400BF3DE0012505FA01F375
:101E1000156805EA03049C4234D105684F00032687
:101E2000BE40B543056015794E00B54006683543A0
:101E300005601579012D02D01579022D16D185681E
:101E40004F000326BE40B543856055794E00B5402E
:101E5000866835438560456801268E40B5434560F8
:101E6000456896798E40B6B235434560C5684F00E7
:101E70000326BE40B543C560D5794E00B540C6685F
:101E80003543C560491C1029BFD3F0BD4FF6FF7123
:101E900001600021017141718171C171704708B504
:101EA0004FF480320092009A0A430092009AC26175
:101EB000C161009AC261C2690092C269009208BD04
:101EC0000246002013690B400BB1012000E0002006
:101ED00070470146086980B2704702460020536986
:101EE0000B400BB1012000E000207047014648691B
:101EF00080B2704701837047418370470AB1018304
:101F000000E0418370474161704742694A40426145
:101F10007047F0B5002300244D07ED0E02FA05F3DB
:101F2000CE1000F1200555F826504E07F70E0F266B
:101F3000BE40B543CF1000F1200646F82750CE1022
:101F400000F1200555F8265045EA0304CE1000F1B3
:101F5000200545F82640F0BD000002400004024084
:101F600000080240000C0240001002400014024031
:101F700000180240001C02400020024000240240E1
:101F800000280240F948006840F00100F749086065
:101F90000020F64908310860F4480068F449084018
:101FA000F2490860F348091D0860F348EF4984319D
:101FB0000860F0481038091D0860EC48006820F4FB
:101FC0008020EA4908600020E8490C310860E749B0
:101FD0008C31086070470021E44A921C1170114650
:101FE0000870704710B501460022002300204A11F6
:101FF000012A02D1DD4C236808E0022A03D1DB4C20
:102000007034236802E0D94C7434236801F01F0255
:10201000012494401C400CB1012000E0002010BDC0
:1020200038B5002000900024002500BF3120FFF7C4
:10203000D9FF05460098401C00900098B0F5A04FCD
:1020400001D0002DF2D03120FFF7CCFF08B10124E0
:1020500000E00024204638BD01460020C34A106835
:1020600020F0F80040EAC10010607047C3490860E2
:1020700070470021BD4A703211701170012802D0E2
:1020800004280AD104E00121B84A7032117005E039
:102090000521B64A7032117000E000BF00BF7047E2
:1020A000B7490860704770B5049C41EA8215012663
:1020B000C6EB530645EA0645054345EA0465AB4EC3
:1020C000361D356070BDAD4908667047820142EA31
:1020D0000172A64B84331A607047A849886670471E
:1020E00010B5830143EA016343EA02739F4C8834CD
:1020F000236010BDA14908677047A049C8647047B4
:1021000002460020994B0833186820F0EC6042EA40
:1021100001031843954B08331860704702460020AE
:10212000924B0833186820F0784042EA01031843C4
:102130008E4B083318607047014600208B4A0832E6
:10214000106820F00300084310607047874808308B
:10215000006800F00C00704701460020834A0832F6
:10216000106820F0F000084310607047014600201E
:102170007E4A0832106820F4E0500843106070472F
:1021800001460020794A0832106820F4604040EA95
:10219000C10010607047F0B5002100220024022524
:1021A00000260223714F08373F6807F00C0121B168
:1021B000042905D0082937D105E0724F076036E0C1
:1021C000714F076033E0694F3F1D3F68C7F380568A
:1021D000664F3F1D3F6807F03F036EB16A4FB7FB84
:1021E000F3F7DFF888C10CF1040CDCF800C0CCF385
:1021F000881C07FB0CF40CE0624FB7FBF3F7DFF829
:102200006CC10CF1040CDCF800C0CCF3881C07FB9B
:102210000CF4564F3F1D3F68C7F301477F1C7D00FC
:10222000B4FBF5F7076002E0564F076000BF00BF40
:102230004E4F08373F6807F0F0010909534F7A5CA9
:102240000768D7404760494F08373F6807F4E051B7
:10225000890A4E4F7A5C4768D7408760434F0837FA
:102260003F6807F46041490B484F7A5C4768D740A4
:10227000C760F0BD002100F44072B2F5407F0AD182
:102280003A4A0832116821F4F811414A02401143D8
:10229000364A08321160354A70321268C0F30B03B7
:1022A0001A43324B70331A6070473549443908601D
:1022B00070473349403908607047364908607047B5
:1022C00001460020294A8C32106820F01F004A1E67
:1022D0001043264A8C321060704701460020234A82
:1022E0008C32106820F4F8504A1E40EA02201F4A3F
:1022F0008C3210607047014600201C4A8C321068F6
:1023000020F4401008431060704701460020174A2F
:102310008C32106820F4400008431060704701467A
:102320000020124A8C32106820F4403008431060BC
:10233000704719490860704739B10C4A3032126849
:1023400002430A4B30331A6006E0084A3032126802
:102350008243064B30331A607047F9B1034A343276
:1023600012680243014B34331A601CE0003802400B
:10237000FFFFF6EA10300024003000200000474242
:10238000800E47420024F40000127A00B0000020C2
:10239000FFFCFF0F5C014742E01147428F4A126881
:1023A00082438E4B1A60704739B18C4A121D1268F5
:1023B00002438A4B1B1D1A6006E0884A121D1268F0
:1023C0008243864B1B1D1A60704739B1834A0C3219
:1023D00012680243814B0C331A6006E07F4A0C32CC
:1023E000126882437D4B0C331A60704739B17B4AC7
:1023F000103212680243794B10331A6006E0774AB4
:10240000103212688243754B10331A60704739B12D
:10241000724A243A12680243704B243B1A6006E069
:102420006E4A243A126882436C4B243B1A60704710
:1024300039B16A4A203A12680243684B203B1A605D
:1024400006E0664A203A12688243644B203B1A60D9
:10245000704739B1614A1C3A126802435F4B1C3B1A
:102460001A6006E05D4A1C3A126882435B4B1C3BD3
:102470001A60704739B1594A143A12680243574BEF
:10248000143B1A6006E0554A143A12688243534BD3
:10249000143B1A60704739B1504A103A126802432F
:1024A0004E4B103B1A6006E04C4A103A12688243C9
:1024B0004A4B103B1A60704739B1484A1C321268C7
:1024C0000243464B1C331A6006E0444A1C32126831
:1024D0008243424B1C331A60704739B13F4A203265
:1024E000126802433D4B20331A6006E03B4A20321B
:1024F00012688243394B20331A60704739B1374A2A
:10250000243212680243354B24331A6006E0334A02
:10251000243212688243314B24331A60704739B138
:102520002E4A2C32126802432C4B2C331A6006E0E0
:102530002A4A2C3212688243284B2C331A60704787
:1025400039B1264A303212680243244B30331A60C4
:1025500006E0224A303212688243204B30331A6040
:102560007047012808D11D493C31096841F0080134
:102570001A4A3C32116007E018493C31096821F0E1
:102580000801164A3C321160704739B1134A273AA4
:1025900012780243114B273B1A7006E00F4A273A84
:1025A000127882430D4B273B1A7070470B4840301E
:1025B000006840F08070094940310860704701466A
:1025C0000020064A283A12680A400AB1012000E0B9
:1025D000002070470149263908707047343802409E
:1025E00010B501218803FFF756FF00214FF480400A
:1025F000FFF751FF10BD1C49086070471B49086276
:10260000704730B500228B071C0F0F2303FA04F22A
:10261000154B08338C1053F824309343124C083474
:102620008D1044F8253023468C1053F824308C0745
:10263000240F00FA04F423430B4C08348D1044F8A3
:10264000253030BD0949DC31086070470849086011
:102650007047002004492031096801F4807109B1F4
:10266000012000E0002070470038014000002742B0
:102670000004274210B50446FE48844208D10121D7
:102680000846FFF708FF00210120FFF704FF9DE047
:10269000B4F1804F08D101210846FFF7EBFE00217D
:1026A0000120FFF7E7FE91E0F348844208D10121C1
:1026B0000220FFF7DFFE00210220FFF7DBFE85E0AE
:1026C000EE48844208D101210420FFF7D3FE002107
:1026D0000420FFF7CFFE79E0E948844208D10121C8
:1026E0000820FFF7C7FE00210820FFF7C3FE6DE0BA
:1026F000E448844208D101211020FFF7BBFE0021ED
:102700001020FFF7B7FE61E0DF48844208D10121C5
:102710002020FFF7AFFE00212020FFF7ABFE55E0A1
:10272000DA48844208D101210220FFF7B4FE0021DB
:102730000220FFF7B0FE49E0D548844209D10121CB
:102740000804FFF7A8FE00214FF48030FFF7A3FE36
:102750003CE0D048844209D101214804FFF79BFEA8
:1027600000214FF40030FFF796FE2FE0CA48844264
:1027700009D101218804FFF78EFE00214FF480204B
:10278000FFF789FE22E0C548844208D1012140209C
:10279000FFF770FE00214020FFF76CFE16E0C048F6
:1027A000844208D101218020FFF764FE00218020AF
:1027B000FFF760FE0AE0BB48844207D10121801583
:1027C000FFF758FE0021A015FFF754FE10BD0022B0
:1027D0000288A84B98420ED0AC4B98420BD0B0F177
:1027E000804F08D0A44B984205D0A44B984202D009
:1027F000A34B984204D14FF68F731A404B881A436B
:10280000A04B984207D0A04B984204D04FF6FF430C
:102810001A400B891A4302804B68C3620B880385F8
:10282000944B984202D0994B984201D18B7A0386FF
:102830000123838270474FF0FF3141600021018006
:1028400001814180817270470185828270470A460A
:10285000002101884FF68F731940114301807047A2
:1028600041627047C16270470146486A704701463D
:10287000088D704721B1028842F00202028004E014
:1028800002884FF6FD731A400280704721B102881A
:1028900042F00402028004E002884FF6FB731A4003
:1028A0000280704721B1028842F08002028004E079
:1028B00002884FF67F731A400280704702884FF6F5
:1028C000F7731A40028002880A4302807047028828
:1028D0004FF6FF431A40028002880A430280704785
:1028E00021B1028842F00102028004E002884FF622
:1028F000FE731A400280704770B500240022002346
:10290000058C4FF6FE7635400584028C8388048B57
:102910004FF68F752C40B51E2C400D882C43751E2C
:102920002A408D892A434D882A43524DA84202D01D
:10293000564DA84213D14FF6F7752A40CD892A4348
:102940004FF6FB752A408D882A434FF6FF652B40D2
:102950004FF6FF552B400D8A2B434D8A2B43838026
:1029600004838D684563028470BD70B50024002225
:102970000023058C4FF6EF7635400584028C838862
:10298000048B48F6FF752C404FF6FF452C400D8810
:102990004FF6FF7606EA05252C434FF6DF752A40F1
:1029A0008D8906EA05152A434D8806EA05152A434E
:1029B000304DA84202D0354DA8421DD14FF67F754B
:1029C0002A40CD894FF6FF7606EA05152A434FF6D1
:1029D000BF752A408D8806EA05152A434FF6FF3554
:1029E0002B404FF2FF752B400D8A06EA85052B43DD
:1029F0004D8A06EA85052B43838004838D688563B1
:102A0000028470BD70B5002400220023058C4FF6AF
:102A1000FF6635400584028C8388848B4FF68F7562
:102A20002C404FF6FC752C400D882C434FF6FF557B
:102A30002A408D894FF6FF7606EA05252A434D8800
:102A400006EA05252A430B4DA84202D00F4DA842A5
:102A500038D14FF2FF752A40CD894FF6FF7606EA4E
:102A600005252A434FF6FF352A408D8806EA0525BD
:102A70002A4319E000000140000400400008004023
:102A8000000C004000100040001400400004014011
:102A9000004001400044014000480140001800404F
:102AA000001C0040002000404EF6FF752B404DF604
:102AB000FF752B400D8A06EA05152B434D8A06EA61
:102AC00005152B43838084838D68C563028470BDA4
:102AD00070B5002200230024058C4EF6FF763540A9
:102AE0000584038C8488828B48F6FF752A404FF654
:102AF000FF452A400D884FF6FF7606EA05252A4352
:102B00004DF6FF752B408D8906EA05352B434D8820
:102B100006EA05352B43FE4DA84202D0FD4DA842E2
:102B200008D14BF6FF752C400D8A4FF6FF7606EA6A
:102B300085152C43848082838D680564038470BD71
:102B4000002101804180818081608181C181018279
:102B50004182704770B503460020002418461830A3
:102B600001258D40ACB21D8CA5431D8409B10829F7
:102B70000AD100EB610005684FF68F76354005609D
:102B80000568154305600FE00D1FC5F34E05284489
:102B9000056848F6FF763540056005684FF6FF7614
:102BA00006EA02263543056070BD416370478163C4
:102BB0007047C1637047016470470A460021018B6A
:102BC0004FF68F7319401143018370470A46002165
:102BD000018B48F6FF7319404FF6FF7303EA022397
:102BE0001943018370470A460021818B4FF68F738A
:102BF00019401143818370470A460021818B48F6B2
:102C0000FF7319404FF6FF7303EA022319438183D0
:102C100070470A460021018B4FF6F77319401143A4
:102C2000018370470A460021018B4FF2FF73194060
:102C30004FF6FF7303EA02231943018370470A46E4
:102C40000021818B4FF6F773194011438183704740
:102C50000A460021818B4FF2FF7319404FF6FF7334
:102C600003EA02231943818370470A460021018B3E
:102C70004FF6FB7319401143018370470A46002148
:102C8000018B4FF6FF3319404FF6FF7303EA02231F
:102C90001943018370470A460021818B4FF6FB736D
:102CA00019401143818370470A460021818B4FF6FA
:102CB000FF3319404FF6FF7303EA02231943818360
:102CC00070470A460021018B4FF67F73194011436C
:102CD000018370470A460021018BC1F30E014FF6B4
:102CE000FF7303EA02231943018370470A46002158
:102CF000818B4FF67F7319401143818370470A46D9
:102D00000021818BC1F30E014FF6FF7303EA02230A
:102D10001943818370470A460021018C4FF6FD73E9
:102D200019401143018470470A460021018C4FF677
:102D3000F77319401143018470470A460021018C42
:102D40004FF6DF7319404FF6FF7303EA021319437E
:102D5000018470470A460021018C4FF67F731940A9
:102D60004FF6FF7303EA02131943018470470A46C2
:102D70000021018C4FF6FF5319404FF6FF7303EA11
:102D800002231943018470470A460021018C4FF247
:102D9000FF7319404FF6FF7303EA022319430184BE
:102DA00070470A460021018C4DF6FF7319404FF61B
:102DB000FF7303EA023319430184704730B50023DF
:102DC00001248C40A3B2048C9C430484048C02FA3A
:102DD00001F5ADB22C43048430BD30B5002304248A
:102DE0008C40A3B2048C9C430484048C02FA01F549
:102DF000ADB22C43048430BD828B4FF2FF331A40B6
:102E00008283828B4FF6FF7303EA01231A43828386
:102E10007047F0B50C461546002100220026078CAD
:102E20004EF6FF7C07EA0C070784818B028C4FF675
:102E3000FF7707EA043640F6FF4739404FF6FF7741
:102E400007EA052739434FF6FF7707EA0337394387
:102E500045F6FF773A4046F480573A43818302842F
:102E6000F0BD828B4FF6F3731A408283828B0A4344
:102E700082837047F0B50C461546002100220026DB
:102E8000078C4FF6FF6C07EA0C070784818B028CD6
:102E90004FF6FF7707EA04264FF60C7739404FF6D6
:102EA000FF7707EA03172F4339434FF2FF573A40A2
:102EB00046F480773A4381830284F0BD028B4FF25F
:102EC000FF331A400283028B4FF6FF7303EA01239C
:102ED0001A4302837047F0B50C46154600210022C4
:102EE0000026078C4FF6EF7C07EA0C070784018B5E
:102EF000028C4FF6FF7707EA041640F6FF47394089
:102F00004FF6FF7707EA033739434FF6FF7703E0C1
:102F1000000001400004014007EA052739434FF64D
:102F20005F773A4046F010073A4301830284F0BDD0
:102F3000028B4FF6F3731A400283028B0A4302831B
:102F40007047F0B50C46154600210022068C4FF65E
:102F5000FE773E400684018B028C4FF60C763140A2
:102F60007E1C06EA03162E4331434FF6F5763240B7
:102F700044F00106324301830284F0BD70B505467A
:102F80000C46208850B92389A28861882846FFF71B
:102F9000D8FFE1882846FFF7CBFF25E020880428EA
:102FA0000AD12389A28861882846FFF794FFE18827
:102FB0002846FFF783FF17E0208808280AD12389D5
:102FC000A28861882846FFF755FFE1882846FFF769
:102FD00048FF09E02389A28861882846FFF719FF86
:102FE000E1882846FFF708FF70BD0021018041807D
:102FF000012181800021C180018170472DE9F041CC
:1030000005460C4600260127608808B9022600E024
:103010000026A088012801D1022700E0012720888E
:10302000A0B92389A28861882846FFF78AFFE18832
:103030002846FFF77DFF23893A4631462846FFF7A9
:103040004AFFE1882846FFF739FF13E02389A28869
:1030500061882846FFF73FFFE1882846FFF72EFFEB
:1030600023893A4631462846FFF76BFFE188284618
:10307000FFF75EFFBDE8F0810146486B70470146EF
:10308000886B70470146C86B70470146086C7047F3
:103090000A884B881A438B881A43CB881A430B89BA
:1030A0001A434B891A438B891A43A0F8442070476E
:1030B0000021018041808180C18001814181818125
:1030C000704731B1B0F8442042F40042A0F84420E7
:1030D00005E0B0F84420C2F30E02A0F84420704787
:1030E00021B1828842F00402828004E082884FF697
:1030F000FB731A408280704721B1828842F001023E
:10310000828004E082884FF6FE731A408280704706
:103110001AB183890B43838102E083898B438381C6
:1031200070478182704702460020138A0B400BB122
:10313000012000E000207047CA430282704730B58A
:103140000246002000230024158A05EA0103958920
:1031500005EA010413B10CB1012000E0002030BDEC
:10316000CA430282704741EA0203A0F84830704720
:103170001AB183890B43838102E083898B43838166
:10318000704721B1828842F00802828004E0828880
:103190004FF6F7731A408280704701894FF6F87234
:1031A0001140018170470A46002101894FF68F7353
:1031B000194011430181704730B504460D46294638
:1031C0002046FFF7F0FF208940F00700208130BD46
:1031D0002DE9F04104460D4616461F46602D06D1E6
:1031E0003B46012231462046FFF775FE05E03B468F
:1031F000012231462046FFF7A4FE29462046FFF76C
:10320000D2FF208940F007002081BDE8F08130B571
:103210000C4600210189C9B24FF6FF7505EA032566
:10322000154325432943018130BD2DE9F041054671
:103230000E4617469846002443463A4631462846ED
:10324000FFF7E5FF2C894FF6F870044044F00704BF
:103250004FF68F70044044F070042C81BDE8F0817B
:10326000F0B504460D4616461F463B4632462946F3
:103270002046FFF7CCFF208940F480402081F0BD3C
:1032800082884FF68F731A40828082880A43828038
:10329000704702894FF6F8731A40028102890A4387
:1032A0000281704702894FF67F731A4002810289BA
:1032B0000A4302817047F0B50C4615461E460021B0
:1032C000002200230189028B038C4FF6F8773940E6
:1032D00021434FF6FC473A4040F201173A434FF67C
:1032E000DD773B404FF6FF7707EA06172F433B4356
:1032F000018102830384F0BD21B1828842F0800203
:10330000828004E082884FF67F731A408280704783
:10331000A0F850107047000010B50446FA488442E7
:1033200008D101211020FFF7B6F800211020FFF787
:10333000B2F857E0F548844209D101214804FFF76B
:1033400099F800214FF40030FFF794F84AE0F04874
:10335000844209D101218804FFF78CF800214FF441
:103360008020FFF787F83DE0EA48844209D1012137
:10337000C804FFF77FF800214FF40020FFF77AF828
:1033800030E0E548844209D101210805FFF772F8D1
:1033900000214FF48010FFF76DF823E0DF488442EE
:1033A00008D101212020FFF776F800212020FFF727
:1033B00072F817E0DA48844209D101218807FFF743
:1033C00059F800214FF08040FFF754F80AE0D54843
:1033D000844207D101214005FFF74CF80021600528
:1033E000FFF748F810BD2DE9FF4705460E460024BB
:1033F000A14600BFA046B08900B100BF2C8A24F4CA
:103400004054F08804432C82AC8941F20C60844320
:10341000B08831890843718908430443AC81AC8A80
:1034200024F44074B0890443AC826846FEF7B3FECE
:10343000B548854202D0B948854202D1DDF80C90EA
:1034400001E0DDF80890A88900F4004040B109EBE4
:10345000C90000EB091031684900B0FBF1F707E043
:1034600009EBC90000EB091031688900B0FBF1F7E6
:103470006420B7FBF0F004012009642101FB1078FF
:10348000A88900F4004040B1322000EBC800B0FB36
:10349000F1F000F00700044308E0322000EB0810D0
:1034A0006421B0FBF1F000F00F0004432C81BDE873
:1034B000FF874FF41651016000218180C180018196
:1034C0000C21418100218181704710B50246002006
:1034D000108A20F470600B884C8823438C88234327
:1034E000CC8823431843108210BD00210180418005
:1034F0008180C180704721B1828942F4005282816B
:1035000004E082894DF6FF731A4082817047028B76
:1035100002F47F420283028B0A430283704721B187
:10352000828942F40042828103E08289C2F30E0262
:103530008281704721B1828A42F40062828204E073
:10354000828A4FF2FF731A4082827047C1F30802E9
:103550008280704701468888C0F308007047028A5D
:103560004FF6F0731A400282028A0A4302827047C1
:1035700021B1828942F00202828104E082894FF601
:10358000FD731A408281704782894FF2FF731A409F
:10359000828182890A4382817047028A4FF6DF73F3
:1035A0001A400282028A0A430282704721B1028ACB
:1035B00042F48042028204E0028A4BF6FF731A4012
:1035C00002827047818941F001018181704721B1F8
:1035D000828A42F00802828204E0828A4FF6F77300
:1035E0001A4082827047028BD2B20283028B42EA77
:1035F00001220283704721B1828A42F02002828236
:1036000004E0828A4FF6DF731A408282704721B14C
:10361000828A42F01002828204E0828A4FF6EF73BF
:103620001A4082827047828A4FF6FB731A40828268
:10363000828A0A438282704721B1828A42F0020262
:10364000828204E0828A4FF6FD731A4082827047BC
:103650001AB1838A0B43838202E0838A8B4383827D
:103660007047F0B50346002400260025002040F6F0
:103670006A17B94200D100BF1846C1F3421401F0E5
:103680001F06012707FA06F5012C01D10C3004E0D2
:10369000022C01D1103000E014301AB107682F431A
:1036A000076002E00768AF430760F0BD02460020F4
:1036B000B1F5007F00D100BF13880B400BB1012092
:1036C00000E00020704701F40072B2F5007F00D1E5
:1036D00000BFCA430280704770B502460024002331
:1036E0000025002040F66A16B14200D100BFC1F3A8
:1036F000421501F01F03012606FA03F3012D13D131
:103700009689334017E0000000100140004400405B
:1037100000480040004C00400050004000140140B0
:1037200000780040007C0040022D02D1168A334010
:1037300001E0968A33400C12012606FA04F416883A
:10374000344013B10CB1012000E0002070BD10B571
:103750000022002340F66A14A14200D100BF0A12E1
:1037600001249440A3B2DC43048010BD0648804786
:1037700006480047FEE7FEE7FEE7FEE7FEE7FEE756
:10378000FEE7FEE7FEE7FEE7A5080008890100085E
:10379000064C074D06E0E06840F0010394E807009E
:1037A00098471034AC42F6D3FCF7F2FCD43700084B
:1037B000F437000802E008C8121F08C1002AFAD135
:1037C00070477047002001E001C1121F002AFBD1A1
:1037D00070470000F437000800000020C00000001F
:1037E000B4370008B4380008C0000020F805000015
:1037F000C43700080000000000000000007A030A3F
:103800000000000000000000010203040607080990
:1038100000000000000000000000000000000000A8
:10382000000000000000000086050000000000000D
:103830000000000000000000000000000000000088
:103840000000000000000000010100000000000076
:103850000000000000000000000000000000000068
:103860000000000000000000000000000000000058
:103870000000000000000000000000000000000048
:103880003200000000000000000000000000000006
:103890000000000000000000000000000000000028
:1038A0000000000000000000010203040102030404
:0438B00006070809F6
:040000050800018965
:00000001FF
